:020000021000EC
:1080000000800020E9E1010031E2010033E20100DB
:108010000000000000000000000000000000000060
:1080200000000000000000000000000035E2010038
:10803000000000000000000037E2010039E201000A
:108040003BE201003BE20100A1B301003BE2010081
:108050003BE201000000000001C301003BE201001F
:108060003BE201003BE201003BE201003BE2010098
:108070003BE201003BE201003BE201003BE2010088
:108080003BE20100719501003BE201003BE201008F
:10809000C19501003BE2010055E101003BE2010016
:1080A0003BE201003BE20100000000000000000094
:1080B00000000000000000000000000000000000C0
:1080C000164B002B00D1144B9D46402292029A1A67
:1080D000924600218B460F461348144A121A00F0AC
:1080E00067F80F4B002B00D098470E4B002B00D0A9
:1080F00098470020002104000D000D48002802D000
:108100000C4800E000BF00F02DF82000290004F02A
:1081100033FE00F011F8C046000008000080002087
:10812000000000000000000074200020585C0020C7
:108130000000000000000000084B10B50400002BF8
:1081400002D0002100E000BF054B1868836A002BB5
:1081500000D09847200000F033F8C046000000002F
:1081600060C502000E4B70B500251E000D4CE41AD0
:10817000A410A54204D0AB00F35898470135F8E7A6
:1081800014F0E0F9084B00251E00084CE41AA41076
:10819000A54204D0AB00F35898470135F8E770BD0D
:1081A00074200020742000207420002074200020FF
:1081B00003008218934202D019700133FAE7704726
:1081C000FEE7C04680B584B000AF78607B689B68EE
:1081D000FB607B68DA68FB68D31A1800BD4604B000
:1081E00080BDC04680B584B000AFF860B960BB1DEB
:1081F0001A80BB68002B01D10E231CE0BB1D1B881D
:10820000002B06D0BB1D1B88013BBA1D12881340F2
:1082100001D009230FE0FB68BA681A60BB1D1B88F8
:10822000013B9AB2FB689A80FB6800229A60FB6867
:108230000022DA6000231800BD4604B080BDC046AD
:1082400080B582B000AF78600A00FB1C1A707B68B2
:108250001800FFF7B7FF02007B689B889A4211D88D
:108260007B681A687B68DB68796889880B40D3185B
:10827000FA1C12781A707B68DB685A1C7B68DA601B
:10828000002300E004231800BD4602B080BDC046B4
:1082900080B582B000AF786039607B681800FFF766
:1082A00091FF031E11D07B681A687B689B68796810
:1082B00089880B40D3181A783B681A707B689B68D2
:1082C0005A1C7B689A60002300E005231800BD4615
:1082D00002B080BD80B582B000AF0200FB1D1A70F5
:1082E000FB1D1B787F2B18D9174AFB1D1B78190023
:1082F0000F230B40083B9B0806339B00D318043325
:108300001A68FB1D1B78190003230B40DB00DA40C1
:108310001300FF2213409B0912E00C4AFB1D1B783F
:108320005BB29B08C0339B009A58FB1D1B78190059
:1083300003230B40DB00DA401300FF2213409B09AC
:108340001800BD4602B080BD00ED00E000E100E095
:108350002EDF7047C04618002FDF7047C046180058
:1083600080B582B000AF78607B68032213405A4228
:108370005341DBB21800BD4602B080BD80B582B06B
:1083800000AF0C4B5B68DB05DB0D7B607B68002B73
:108390000BD07B68103B3B603B68DBB25BB21800E4
:1083A000FFF798FF0300DBB200E004231800BD468E
:1083B00002B080BD00ED00E080B582B000AF0200E9
:1083C000FB1D1A70FB1D1B789AB2074B1B889A4243
:1083D00004D2FB1D1B780133DBB200E00023180040
:1083E000BD4602B080BDC0468020002080B582B06E
:1083F00000AFFB1D0A4A12781A700A4B1B78DBB2D9
:108400001800FFF7D9FF03001A00FB1D1B789B1A09
:108410005A425341DBB21800BD4602B080BDC0468F
:108420007C2000207D20002080B582B000AFFB1DA5
:10843000074A12781A70074B1B78DBB2FA1D1278C4
:10844000D31A5A425341DBB21800BD4602B080BD78
:108450007C2000207D20002080B584B000AF3A60F1
:10846000BB1D021C1A803B1D0A1C1A803B1D1B8869
:1084700001339AB20E23FB18D2001A803B68180011
:10848000FFF76EFF03001A0001235340DBB2002BFD
:1084900001D0072318E00E4B3A681A600E23FB1830
:1084A0001B883A68D2180B4B1A600B4B00221A70CB
:1084B0000A4B00221A700A4BBA1D12881A80094B07
:1084C0003A1D12881A8000231800BD4604B080BDF2
:1084D00074200020782000207D2000207C200020B7
:1084E0007E2000208020002080B58CB000AFF86096
:1084F0007A600A23FB180A1C1A80534B1B880A2235
:10850000BA1812889A4200D996E02A23FB18012251
:1085100052421A801323FB1800221A70FFF72EFF15
:1085200003007B627B6A012B16D01323FB18180013
:10853000FFF70EFF03003B623B6A022B01D172B6CC
:108540000AE03B6AFB61FB69002B05D0FB69002256
:108550000021180003F0E8FFFFF748FF031E0FD1CA
:108560003A4B1B78DAB22A23FB181A80374B1B7858
:10857000DBB21800FFF720FF03001A00334B1A701C
:108580007B6A012B16D062B61323FB181B781800E8
:10859000FFF7E2FE0300BB61BB69022B0AD0BB6997
:1085A0007B617B69002B05D07B69002200211800CC
:1085B00003F0BAFF2A23FB181B88254A934238D0C0
:1085C000244B1A682A23FB181B88DB00D3187A680F
:1085D0001A60FB68002B20D00A23FB181B88002B95
:1085E0001BD01D4B1B682A22BA181288164909880D
:1085F0004A4398180A23FB181A88FB68190013F0DD
:108600005AF8144B1A682A23FB181B88DB00D3186E
:108610000A22BA1812889A8008E00E4B1A682A2398
:10862000FB181B88DB00D31800229A800023FB6212
:1086300004E00423FB6201E00923FB62FB6A1800EB
:10864000BD460CB080BDC0467E2000207D200020AD
:10865000FFFF0000742000207820002080B586B045
:1086600000AFF860B9607A6005237B61FFF7DCFE3C
:10867000031E30D11A4B1B78DAB21223FB181A8072
:10868000174B1B78DBB21800FFF796FE03001A00A9
:10869000134B1A70134B1B681222BA181288124916
:1086A00009884A439A18FB681A60104B1A6812230B
:1086B000FB181B88DB00D3189A88BB681A800B4B09
:1086C0001A681223FB181B88DB00D3181A687B6812
:1086D0001A6000237B617B691800BD4606B080BD2F
:1086E0007C200020782000207E20002074200020A4
:1086F00080B584B000AF06E07B68F8680A22BA183B
:108700001288110098473A1D0A23F9180C23FB1808
:108710001800FFF7A3FF031EEED0C046BD4604B00D
:1087200080BDC04680B582B000AF78607B68032210
:1087300013405A425341DBB21800BD4602B080BD1F
:1087400080B582B000AF0200FB1D1A70064BFA1D07
:10875000127811001F220A40012191400A001A607C
:10876000C046BD4602B080BD00E100E080B582B0E9
:1087700000AF0200FB1D1A70074AFB1D1B78190091
:108780001F230B40012199400B0019008023D15079
:10879000C046BD4602B080BD00E100E080B582B0B9
:1087A00000AF0200FB1D1A70084AFB1D1B78190060
:1087B0001F230B40012199400B00190080235B000F
:1087C000D150C046BD4602B080BDC04600E100E0C9
:1087D00080B582B000AF0200FB1D1A70084AFB1D75
:1087E0001B7819001F230B40012199400B00190031
:1087F000C0235B00D150C046BD4602B080BDC0461C
:1088000000E100E0B0B582B000AF02003960FB1DAE
:108810001A70FB1D1B787F2B32D92F4CFB1D1B7848
:108820001A000F231340083B99082B4AFB1D1B78A5
:1088300018000F230340083B9B0806339B00D31806
:1088400004331B68FA1D1278100003220240D20084
:10885000FF2090400200D2431A403B689B01FF205A
:108860001840FB1D1B781D0003232B40DB009840A4
:1088700003001A438B1D9B00E31804331A6027E0A2
:10888000164CFB1D1B785BB29B081449FA1D12782D
:1088900052B29208C03292005258F91D097808006D
:1088A00003210140C900FF2088400100C943114055
:1088B0003A689201FF201040FA1D12781500032239
:1088C0002A40D200904002000A43C0339B001A5154
:1088D000C046BD4602B0B0BD00ED00E000E100E0E2
:1088E00080B582B000AF0200FB1D1A70FB1D1B7823
:1088F0007F2B18D9174AFB1D1B7819000F230B403B
:10890000083B9B0806339B00D31804331A68FB1DF1
:108910001B78190003230B40DB00DA401300FF2211
:1089200013409B0912E00C4AFB1D1B785BB29B08AD
:10893000C0339B009A58FB1D1B78190003230B4082
:10894000DB00DA401300FF2213409B091800BD46EC
:1089500002B080BD00ED00E000E100E080B582B033
:1089600000AF0C4B5B68DB05DB0D7B607B68002B8D
:108970000BD07B68103B3B603B68DBB25BB21800FE
:10898000FFF7AEFF0300DBB200E004231800BD4692
:1089900002B080BD00ED00E080B582B000AF78602D
:1089A0000649A123DB007A68CA5003211120FFF792
:1089B00029FFC046BD4602B080BDC0460010014040
:1089C00080B582B000AF1749D1239B0080225202AC
:1089D000CA501449C1239B0080225202CA50112060
:1089E000FFF7F6FE1120FFF7ABFE0E4B01221A60D7
:1089F0002F237B607B6818000138C046C046C04604
:108A0000C046C046C046C046C046C046C046C04636
:108A1000C046F1D1044B01221A70C046BD4602B0D7
:108A200080BDC04600100140A820002080B582B063
:108A300000AF1120FFF79AFE1F49D2239B0080222E
:108A40005202CA501C49C2239B0080225202CA50C3
:108A5000194B01225A602F237B607B681800013874
:108A6000C046C046C046C046C046C046C046C046D6
:108A7000C046C046C046C046F1D10F4B01229A60A5
:108A80000E4B00221A602F233B603B681800013810
:108A9000C046C046C046C046C046C046C046C046A6
:108AA000C046C046C046C046F1D1054B00221A70F0
:108AB000C046BD4602B080BD001001409420002099
:108AC000A820002080B500AF024A034BD3581800FD
:108AD000BD4680BD001001400405000080B582B095
:108AE00000AF786039607A683B68D31A1B021B0AB2
:108AF0001800BD4602B080BD80B582B000AF78607E
:108B00000449A823DB007A68CA50C046BD4602B0BB
:108B100080BDC0460010014080B586B000AF7860CF
:108B20004C4B19687A681300DB009B189B00CB182C
:108B3000BB60494B1B68013303D1474B7A681A600D
:108B400084E0BB685968434B1868434B1A681300AC
:108B5000DB009B189B00C3185B6899421ED83D4BF5
:108B600019683D4B1A681300DB009B189B00CA185C
:108B7000384B1868384B19680B00DB005B189B00FA
:108B8000C3185968BB685B68CB1A5360324B1A68CC
:108B9000BB681A62304B7A681A6057E0BB685B6842
:108BA000FB602D4B1B687B612B4B1B683B6117E007
:108BB000284B19683A691300DB009B189B00CB18FF
:108BC0005B68FA68D31AFB603B697B61214B1968CB
:108BD0003A691300DB009B189B00CB181B6A3B61B2
:108BE0003B6901330BD01B4B19683A691300DB005A
:108BF0009B189B00CB185A68FB689A42D8D33B69F4
:108C0000013313D0134B19683A691300DB009B182A
:108C10009B00CA180F4B186839690B00DB005B1802
:108C20009B00C3185968FB68CB1A5360BB68FA688D
:108C30005A60BB683A691A62064B19687A69130070
:108C4000DB009B189B00CB187A681A62C046BD46B1
:108C500006B080BD842000209020002080B586B022
:108C600000AF78603E4B1B687B617B693B610FE026
:108C70003A697B689A420FD03B697B61394B19682E
:108C80003A691300DB009B189B00CB181B6A3B6101
:108C90003B690133ECD100E0C0463B6901335AD057
:108CA0007A693B699A4218D12E4B19682C4B1A6885
:108CB0001300DB009B189B00CB181A6A284B1A6024
:108CC000274B1B68013308D1274B01229A60274BA1
:108CD00000221A60264B01221A70224B19683A6949
:108CE0001300DB009B189B00CB185B68FB601D4BDF
:108CF00019687A691300DB009B189B00CA18194B8E
:108D0000186839690B00DB005B189B00C3181B6AED
:108D10001362144B19687A691300DB009B189B00DF
:108D2000CB181B6A3B613B69013315D00D4B1968A9
:108D30003A691300DB009B189B00CA18094B18689E
:108D400039690B00DB005B189B00C3185968FB688E
:108D5000CB18536000E0C046BD4606B080BDC0469B
:108D6000902000208420002000100140942000204A
:108D7000A920002080B500AF1120FFF70FFDC046ED
:108D8000BD4680BD80B500AF1420FFF707FDC0468B
:108D9000BD4680BD80B584B000AF7860114B1B68C4
:108DA000002B15D00F4B1A687B6898697B68DB69CC
:108DB000190090470300FB60FB68BB60BB68002B99
:108DC0000CD0BB6800220021180003F0ADFB05E0C9
:108DD0007B689A697B68DB6918009047C046BD468E
:108DE00004B080BDA420002080B584B000AF2C4B1F
:108DF0001B68013350D000237B60FFF763FE020045
:108E0000284B1B6819001000FFF768FE0300BB60C9
:108E1000234B1B68FB601EE0234B1968FA681300A4
:108E2000DB009B189B00CB183B603B685A68BB6813
:108E30009A4214D83B685B68BA68D31ABB603B6837
:108E40005B687A68D3187B603B681B6AFB603B6891
:108E50001800FFF79FFFFB680133DDD100E0C0463B
:108E6000124B1A78124B1B789A420CD1104B1B787C
:108E70000133DAB20E4B1A700D4B1B78022B02D164
:108E80000B4B00221A700A4B1B781A00094B9200F8
:108E90007968D150FFF776FFC046BD4604B080BD6B
:108EA000902000209420002084200020A02000207A
:108EB000A12000209820002080B582B000AF78600B
:108EC000184B1A78184B1B789A4223D0154B1B78F5
:108ED0000133DAB2134B1A70124B1B78022B02D1FA
:108EE000104B00221A700F4B1B781A000F4B920088
:108EF000D2587B681A607B681A680D4B1B68D218C1
:108F00000B4B1A600A4B1B681B021A0A084B1A60AB
:108F1000012303E07B6800221A6000231800BD468D
:108F200002B080BDA0200020A120002098200020B9
:108F30009420002080B586B000AF424B1B683B6197
:108F40001723FB18404A12781A7066E03F4B1A68E4
:108F50001723FB181B78DB00D318FB601623FB18C4
:108F6000FA6812781A7051E0FB6859681623FB18EA
:108F70001A7813005B009B18DB00CB18BB6016232C
:108F8000FB181A781623FB1801321A70FB689B78BD
:108F90001622BA1812789A4203D11623FB1800221F
:108FA0001A70BB681B78022B02D0032B28D02CE050
:108FB000274B1968BB685A681300DB009B189B009D
:108FC000CB187B607B681B7D002B1FD0BB685B6868
:108FD0001800FFF743FE7B6800221A7516E01C4B51
:108FE0001968184B1A681300DB009B189B00CB18FC
:108FF0003B603B6800221A753B681A6A114B1A6085
:10900000104B1B680133EAD100E0C046FB685B7877
:109010001622BA1812789A42A6D11723FB181B7889
:109020001722BA18591E1170002B8FD1054B1A68E0
:109030003B69D31A5A1E9341DBB21800BD4606B0F5
:1090400080BDC04690200020882000208C20002079
:109050008420002080B588B000AFF860B9607A60E5
:109060000023FB6142E0254B1968254B1A68130069
:10907000DB009B189B00CB18BB61BB695A68FB687F
:109080009A4206D9BB695A68FB68D21ABB695A6012
:1090900030E0BB695B68FA68D31AFB60BB695B6848
:1090A000FA69D318FB61BB6900225A60BB690022D0
:1090B0001A75134B1B687B61BB691A6A104B1A60E7
:1090C000BB691B69002B11D0BA68FB69D3181B025E
:1090D0001A0ABB699A60BB691A69BB69DA607B6866
:1090E0001A68BB691A627B687A691A60044B1B684C
:1090F0000133B8D1C046BD4608B080BD84200020F1
:109100009020002080B58AB000AF7860664B1B6865
:10911000BB612723FB18654A12781A70AEE0644BD6
:109120001A682723FB181B78DB00D3187B619AE0B1
:109130007B6801330ED07B683B625E4B19683A6AEC
:109140001300DB009B189B00CB18FB61FB691B6ABB
:109150007B6045E07B695A687B691B7819000B00CE
:109160005B005B18DB00D3183B617B691B78013324
:10917000DAB27B691A707B691A787B699B789A42AC
:1091800002D17B6900221A703B695B683B62494BE4
:1091900019683A6A1300DB009B189B00CB18FB612F
:1091A0003B691B78012B5ED1FB691B7D002B00D036
:1091B00059E03B699A68FB699A603B69DA68FB6928
:1091C000DA603B691A69FB691A613B695A69FB6994
:1091D000DA61394B1B78002B02D0FB6900229A60C0
:1091E000FB699A68354B1B68D31A1B021B0A344A69
:1091F00093420ED8FB699A68304B1B681900100027
:10920000FFF76CFC0200FB69DB68D218FB695A604F
:1092100018E02A4B1A68FB699B6819001000FFF7D9
:109220005DFC0300FB60FB69DA68FB689A4206D9C3
:10923000FB69DA68FB68D21AFB695A6002E0FB69D5
:1092400000225A60FB6900229A60FB690022DA6002
:10925000FB6901221A75FB69012252421A623B6ABC
:109260001800FFF759FC7B68013300D060E77B6989
:109270001A787B695B789A4200D059E72723FB185C
:109280001B782722BA18591E1170002B00D046E710
:10929000054B1A68BB69D31A5A1E9341DBB21800FA
:1092A000BD460AB080BDC046902000208820002026
:1092B0008C20002084200020A92000209420002061
:1092C000FEFF7F0090B589B000AF78602A4B1B6825
:1092D00001334BD0294B1968274B1A681300DB0068
:1092E0009B189B00CB185B68FB61FFF7EBFB03004F
:1092F000BB61234B1B687B617A69BB691100180055
:10930000FFF7ECFB030003333B611E4B1B7801228C
:109310005340DBB2002B01D0FFF752FBFA693B69E7
:10932000934200D213007A69D3187B617B691B02D8
:109330001B0A7B617B691800FFF7DEFBFFF7C2FBAE
:109340000300FB60BA69FB6811001800FFF7C6FB59
:109350000300DC1CBA697B6911001800FFF7BEFB33
:1093600003009C4204D9FFF705FD01E0FFF75EFB17
:10937000C046BD4609B090BD90200020842000204A
:1093800094200020A820002090B587B000AF0123D2
:109390005B427B601E4B1B683B611E4B1B68FB6086
:1093A0000B23FC183B001800FFF786FD0300237019
:1093B0001723FC18FFF7BEFD030023700B23FB18D7
:1093C0001B78002B09D03B683A1D39691800FFF75C
:1093D00041FE1723FB1801221A707B681800FFF763
:1093E00091FE031E03D01723FB1801221A701723C6
:1093F000FB181B78002B03D0FB681800FFF762FFF7
:10940000054B00221A70C046BD4607B090BDC0464D
:109410009420002090200020A920002080B582B058
:1094200000AF786039603B68DAB27B685A70C0463A
:10943000BD4602B080BDC04680B584B000AF786044
:1094400039607B685B780133FB607B689B781A1E10
:10945000FB689A4201D10023FB607B681B781A1ECF
:10946000FB689A4201D100230EE03B68FA681A605B
:109470007B685A687B685B7819000B005B005B189F
:10948000DB00D318BB60BB681800BD4604B080BDCC
:1094900080B586B000AFF860B9607A603B601B4B66
:1094A0001A68FB68DB00D3181022BA1811001800E4
:1094B000FFF7C2FF03007B617B69002B01D104230E
:1094C00020E07B6901221A707B69BA685A60FFF755
:1094D000F9FA02007B699A607B697A68DA607B69D5
:1094E0003A681A617B693A6A5A61084B1A68FB68E4
:1094F000DB00D3183A6911001800FFF78FFFFFF760
:1095000041FC00231800BD4606B080BD8C20002021
:1095100080B584B000AF78603960144B1A687B68FE
:10952000DB00D3180822BA1811001800FFF784FFD7
:109530000300FB60FB68002B01D1042312E0FB68F1
:1095400002221A70FB683A685A60084B1A687B68F6
:10955000DB00D318BA6811001800FFF75FFFFFF7B0
:1095600011FC00231800BD4604B080BD8C200020F3
:1095700080B500AF114AA0235B000021D1500F4AF3
:10958000A2235B000021D1500C4AA4235B000021E0
:10959000D1500A4AA6235B000021D150074A8023FC
:1095A0005B000021D150054A82235B000021D1508D
:1095B000FFF71AFCC046BD4680BDC0460010014002
:1095C00080B500AFFFF7E0FEC046BD4680BDC04697
:1095D00080B586B000AFF860080011007B600B23F7
:1095E000FB18021C1A700A23FB180A1C1A707B68ED
:1095F0001800FFF797F803001A0001235340DBB26D
:10960000002B01D007238BE07B68002B01D10723BF
:1096100086E0FFF70BFA444B3A6A1A60434B0B2281
:10962000BA1812781A70424B7A681A6000237B616C
:1096300016E03F4B19687A691300DB009B189B000A
:10964000CB1800221A703A4B19687A691300DB00B4
:109650009B189B00CB1800221A757B6901337B6134
:109660000B23FB181A787B699A42E2DC0B23FB1868
:109670001A781300DB009B189B001A007B689B186C
:109680007B602C4B03221A702B4B7A681A607B6824
:1096900018337B6000237B6121E0274B1A687B69CC
:1096A000DB00D3183B613B6900221A703B69002242
:1096B0005A703B690A22BA1812789A703B697A6824
:1096C0005A600A23FB181A7813005B009B18DB0012
:1096D0001A007B689B187B607B6901337B617B6927
:1096E000022BDADD154B012252421A60144B002284
:1096F0001A70144B00221A701420FFF769F8032126
:109700001420FFF77FF81420FFF71AF8FB68180001
:10971000FFF742F9FFF7D6F902000B4B1A6000235E
:109720001800BD4606B080BDA42000208220002085
:1097300084200020882000208C2000209020002001
:10974000A0200020A12000209420002080B586B019
:1097500000AFF8607A600B23FB180A1C1A70284BC4
:109760001B68002B01D1082346E07B68002B01D148
:10977000072341E0FB68002B01D107233CE00023D5
:109780007B6132E01E4B19687A691300DB009B187D
:109790009B00CB181B78002B24D1194B19687A69D0
:1097A0001300DB009B189B00CB1801221A70144B8E
:1097B00019687A691300DB009B189B00CB180B22F9
:1097C000BA1812785A700E4B19687A691300DB00C8
:1097D0009B189B00CB187A689A617A69FB681A60BB
:1097E000002309E07B6901337B61064B1B781A1E5D
:1097F0007B699A42C6DC04231800BD4606B080BDD2
:10980000842000208220002080B582B000AFFFF7C6
:10981000A5F8031E012B02D0032B03D005E0002383
:109820007B6005E001237B6002E002237B60C04691
:109830007B681800BD4602B080BDC04690B589B0B7
:1098400002AFF860B9607A601E4B1B68002B01D133
:10985000082333E01C4B1B781A1EFB689A4202D97E
:10986000BB68042B01D8072328E0164B1968FA6857
:109870001300DB009B189B00CB181B78012B01D039
:1098800008231BE00F4B1968FA681300DB009B18D4
:109890009B00CB185B78012B01D1BB6800E0002353
:1098A0007B61FFF7B1FF04007869BA68F9687B68EB
:1098B000009303002000FFF7EBFD03001800BD46F6
:1098C00007B090BD842000208220002080B582B0A7
:1098D00000AF7860134B1B68002B01D108231DE0FB
:1098E000114B1B781A1E7B689A4201D8072315E09A
:1098F0000C4B19687A681300DB009B189B00CB188F
:109900001B78012B01D0082308E0FFF77DFF020040
:109910007B6819001000FFF7FBFD03001800BD462F
:1099200002B080BD842000208220002080B582B05B
:1099300000AF7860FFF7C6F802007B681A6000236A
:109940001800BD4602B080BD80B584B000AF78601D
:109950000A00BB1C1A807B68FB60BB1C1B88083B91
:109960005A425341DBB2BB60BB68002B04D10022DA
:109970000021002002F0D8FDFB681A68FB685B68D4
:1099800018009047C046BD4604B080BD80B584B085
:1099900000AF786039600823FB187A681A600823E2
:1099A000FB183A685A60064A0823FB180821180079
:1099B000FEF79AFD03001800BD4604B080BDC04606
:1099C0004999010080B582B000AF78607B680122C0
:1099D0001A71C046BD4602B080BDC04680B584B095
:1099E00000AF0023FB603D4BBB6000237B60802306
:1099F0003B607B6808337B6019E0FB68DA00384B1A
:109A0000D3181800FFF7DEFF354BFA68D200B968AB
:109A1000D150BA683B68D318BB60314AFB68DB00A1
:109A2000D318053300221A70FB680133FB60FA6813
:109A30007B689A42E1D380235B003B607B68043300
:109A40007B6019E0FB68DA00254BD3181800FFF79C
:109A5000B9FF234BFA68D200B968D150BA683B68A5
:109A6000D318BB601E4AFB68DB00D3180533012204
:109A70001A70FB680133FB60FA687B689A42E1D395
:109A80008023DB003B607B6803337B6019E0FB686D
:109A9000DA00134BD3181800FFF794FF104BFA6845
:109AA000D200B968D150BA683B68D318BB600C4A81
:109AB000FB68DB00D318053302221A70FB68013300
:109AC000FB60FA687B689A42E1D3064B01221A7068
:109AD00000231800BD4604B080BDC046AC20002065
:109AE000AC3400202435002080B586B000AF78600B
:109AF0003960314B1B7801225340DBB2002B01D07F
:109B00002E4B54E07B68002B01D12D4B4FE03B687E
:109B1000002B01D12A4B4AE03B681B68FB60FB68C5
:109B2000002B04D0FA688023DB009A4201D9254B30
:109B30003DE0254B7B61FB68802B02D800233B6115
:109B400031E0FA6880235B009A4202D808233B6127
:109B500029E00C233B6126E01C4A3B69DB00D3185B
:109B600004331B78002B1BD0184A3B69DB00D31849
:109B7000043300221A70154B3A69D200D2587B6820
:109B80001A6000237B61114A3B69DB00D31805335F
:109B90001B781A000E4B9200D2583B681A6005E001
:109BA0003B6901333B613B690E2BD5D97B691800BA
:109BB000BD4606B080BDC0462435002008810000A7
:109BC0000E8100000781000004810000AC340020F9
:109BD00064C5020080B584B000AF7860174B1B7875
:109BE00001225340DBB2002B01D0154B21E07B68F2
:109BF000002B01D1134B1CE0134BFB600023BB6017
:109C000013E0124BBA68D200D2587B689A4209D14D
:109C1000BB68DA000D4BD3181800FFF7D3FE002302
:109C2000FB6005E0BB680133BB60BB680E2BE8D965
:109C3000FB681800BD4604B080BDC0462435002036
:109C4000088100000E81000010810000AC3400206B
:109C500080B586B000AFF860B9607A6000237B61A0
:109C600009E0BB685A1CBA601B78180001F0B6FD09
:109C70007B6901337B617A697B689A42F1DB7B689F
:109C80001800BD4606B080BD80B584B000AFF86056
:109C9000B9607A60C046BB68180001F08DFD031EF4
:109CA000052BF8D001231800BD4604B080BDC04686
:109CB00080B582B000AF7860154A7B682A212C20DD
:109CC0004343D3185B1800221A70114A7B682B217A
:109CD0002C204343D3185B1800221A700C4A7B686F
:109CE0002C214B43D3180C3300221A60084A7B689E
:109CF0002C214B43D318083300221A60044B7A6896
:109D00002C214A430021D150C046BD4602B080BD3F
:109D10002835002080B586B000AFB9607A600E2388
:109D2000FB18021C1A801623FB1800221A80162327
:109D3000FB181B88BA68D3180E22BA181288D2B240
:109D40007F210A40D2B21A700E23FB180E22BA18D5
:109D50001288D2091A800E23FB181B88002B0FD003
:109D60001623FB181B88BA68D3181622BA18128853
:109D7000B9688A181278802149420A43D2B21A700F
:109D80001623FB181A881623FB1801321A800E239B
:109D9000FB181B88002BCAD17B681622BA181288C0
:109DA0001A80C046BD4606B080BDC04680B586B0AC
:109DB00000AFF860B9607A601623FB1800221A80A1
:109DC0001423FB1800221A801223FB1801221A8088
:109DD0001623FB181B88FA68D3181B789BB27F22C6
:109DE00013409BB21222BA181288534399B214231B
:109DF000FB181422BA1812888A181A801223FB182A
:109E00001222BA181288D2011A801623FB181B8856
:109E10001622BA18591C11801A00FB689B181B786F
:109E2000DBB25BB2002BD3DB7B681622BA18128838
:109E30001A80BB681422BA1812881A80C046BD4620
:109E400006B080BD90B587B000AFF860B960BB1DAB
:109E50001A80FB687B610C4A7B692A212C204343D2
:109E6000D3185B181B787F221340DCB2064A7B694B
:109E70002A212C204343D3185B18221C1A7000237C
:109E80001800BD4607B090BD2835002080B586B0CB
:109E900000AFF860B960BB1D1A80FB682A229B5C8A
:109EA000DBB25BB2002B02DA07237B6122E0FB68A6
:109EB0005B68134A1100180004F0A0FFFB685868A3
:109EC000BB1D1A88B968012307F09EFF03007B6160
:109ED0007B69002B0ED101F05BF80200FB685A6130
:109EE000FB682A229B5C802252421343D9B2FB6852
:109EF0002A2299547B691800BD4606B080BDC04631
:109F0000459E010080B588B000AF786039607B68FD
:109F10001B682C225A43134BD318FB61FB692A227E
:109F20009B5C1A000423134008D10C23FB18002269
:109F30001A700C23FB180522DA6007E00C23FB18CB
:109F400001221A700C23FB183A68DA60FB691B695E
:109F50000C22B9187A6810009847C046BD4608B070
:109F600080BDC0462835002080B584B000AF786041
:109F700039607B681B682C225A43144BD318FB6052
:109F8000FB685B680021180004F032FFFB685B6827
:109F90000021180004F032FFFB685B680021180004
:109FA00004F028FFFB685B68180005F0EFFB3A68D7
:109FB0007B6811001800FFF7A5FF7B681B6818007D
:109FC000FFF776FEC046BD4604B080BD28350020B0
:109FD00090B593B000AFF860B9607A603B60FB6801
:109FE000BB627A683968944B180002F04FFF3B68F7
:109FF000002B00D00DE17B68002B00D109E17B68CC
:10A000001B891A008D4B1100180002F03FFF7B687E
:10A010001A89BB681100180004F0D6FC7B685B68E5
:10A020003B643B6C1B781A00F0231340302B0FD09D
:10A0300003DC202B00D1BDE0EAE0D02B03D0E02BE5
:10A0400000D1DAE0E4E07E4B180002F01FFFDFE011
:10A050003B6C01331422BA18162179181800FFF747
:10A06000A5FE1423FB181B88DAB24723FB18033222
:10A070001A704723FB181B783A6CD2181823FB1868
:10A080001A601423FB181B8801333A6CD3181B7811
:10A090001B021422BA1812880232396C8A181278FC
:10A0A00013431A001823FB185A601023FB18402290
:10A0B0001A701023FB1802225A703B6C1B781A008E
:10A0C0000623134010D04723FB184722BA181278F2
:10A0D00002321A703B6C9A781023FB189A703B6C12
:10A0E000DA781023FB18DA704723FB181A78182344
:10A0F000FB185B68D3183A6CD2182023FB181A603F
:10A100007B681B8919004723FB181A781823FB1852
:10A110005B68D318CA1A2023FB185A602023FB1847
:10A1200059681823FB185A68464B180002F0AEFE17
:10A130002C23FB182022BA189A602C23FB18182213
:10A14000BA185A602C23FB1802221A702C23FB1811
:10A150000022DA60BB6A3C4A2C214B43D3180433FB
:10A1600018681023F9180123042207F04DFE03009C
:10A17000FB63FB6B002B0AD1BC6A00F009FF0100F6
:10A18000314A2C236343D3181433196003E02F4B57
:10A19000180002F07BFEBB6A2B4A2C214B43D318DC
:10A1A00010331B682C22B9182822BA1810009847BF
:10A1B000C0462DE0264B180002F068FEBB6A224A1A
:10A1C0002A212C204343D3185B1804221A702C2315
:10A1D000FB1800221A702C23FB180022DA60BB6ADD
:10A1E000194A2C214B43D31810331B682C22B91861
:10A1F0002822BA18100098470AE0164B180002F0FF
:10A2000045FE2823FB1800211800FFF7ADFEC046CD
:10A2100009E0114B180002F039FE2823FB18082131
:10A220001800FFF7A1FE7B68180004F0B3FA0023C2
:10A230001800BD4613B090BD74C50200ACC5020045
:10A24000D8C50200F4C502002835002018C6020057
:10A250003CC602006CC602008CC6020080B58EB0FF
:10A2600000AFF860B9607A60FB683B62D64BFB6276
:10A27000D64B180002F00AFE7B68002B00D09EE14E
:10A28000D34ABB681100180004F0B4FDD14BBB6287
:10A290003723FB1802221A703423FB1800221A807D
:10A2A0002723FB1800221A70FB6A1B68180011F0A4
:10A2B0000BFA02002623FB181A703323FB18262200
:10A2C000BA1812780E321A70FB6A9B68002B37D0CE
:10A2D0003723FB183722BA181278802149420A43E3
:10A2E0001A70FB6A9B68180011F0EEF90200342323
:10A2F000FB181A803423FB181B88DAB23323FB18AF
:10A300001B78D318DAB23323FB1802321A70FB6AB7
:10A31000DB68002B14D0FB6ADB685B68DAB233239E
:10A32000FB181B78D318DAB23323FB1802321A70E9
:10A330003723FB183722BA18127840210A431A70C3
:10A340002623FB1819783323FB181A78A24B180020
:10A3500002F09CFDE0239A00BB6A00211800FDF783
:10A3600027FF3323FB181B789A1CB96A9B4B1800F4
:10A3700002F08CFD1023FB1810221A701023FB181A
:10A380003322BA1812785A701023FB1800229A70E0
:10A390001023FB180622DA701023FB184D221A71C5
:10A3A0001023FB1851225A711023FB1849229A716D
:10A3B0001023FB187322DA711023FB1864221A721F
:10A3C0001023FB1870225A721023FB1803229A7272
:10A3D0001023FB183722BA181278DA721023FB18F0
:10A3E00000221A731023FB183C225A737C4B0E2157
:10A3F000180002F04BFD1023F918BB6A0E2218005A
:10A4000011F059F92723FB180E221A702723FB1885
:10A410001B78BA6AD31800221A702723FB181A78FF
:10A420002723FB1801321A702723FB181B78BA6AFE
:10A43000D3182622BA1812781A702723FB181A7814
:10A440002723FB1801321A702623FB181A78654B54
:10A450001100180002F01AFD2723FB181B78BA6AB6
:10A46000D018FB6A19682623FB181B781A0011F014
:10A4700022F92723FB182722B9182622BA180978AF
:10A4800012788A181A70FB6A9B68002B75D03423E7
:10A49000FB181A88544B1100180002F0F7FC272310
:10A4A000FB181B78BA6AD3183422BA181288120A19
:10A4B00092B2D2B21A702723FB181A782723FB18FE
:10A4C00001321A702723FB181B78BA6AD31834227A
:10A4D000BA181288D2B21A702723FB181A782723C9
:10A4E000FB1801321A702723FB181B78BA6AD018A0
:10A4F000FB6A99683423FB181B881A0011F0DBF8FB
:10A50000FB6ADB68002B38D0FB6ADB685A68374B84
:10A510001100180002F0BAFC2723FB181B78BA6A56
:10A52000D218FB6ADB685B681B0ADBB21370272357
:10A53000FB181A782723FB1801321A702723FB18FF
:10A540001B78BA6AD218FB6ADB685B68DBB21370EF
:10A550002723FB181A782723FB1801321A702723A8
:10A56000FB181B78BA6AD018FB6ADB681968FB6AAB
:10A57000DB685B681A0011F09EF83323FB181B7828
:10A580009A1C1B4B1100180002F080FC3B6A2C2225
:10A590005A430D4BD0183323FB181B789BB2023360
:10A5A0009AB2BB6A1900FFF771FC03007B607B68FD
:10A5B000002B04D02023FB18180000F01BF87B6848
:10A5C0001800BD460EB080BD28350020C0C6020070
:10A5D000D19F010054350020E4C602001CC70200D0
:10A5E00050C7020080C70200B0C70200E0C70200E7
:10A5F00010C8020080B584B000AF78607B681B682B
:10A60000FB60154AFB682A212C204343D3185B18B2
:10A610001A780B23FB187F210A401A700B23FB18B2
:10A620001B78002B12D00C4AFB682C214B43D3180B
:10A6300004331B68180005F081FB074AFB682A21D8
:10A640002C204343D3185B1800221A7000231800F3
:10A65000BD4604B080BDC0462835002080B582B01C
:10A6600000AF00237B6006E07B681800FFF720FB4B
:10A670007B6801337B607B68002BF5D0C046BD460C
:10A6800002B080BD80B584B000AF786039607B686F
:10A69000FB60064AFB682A212C204343D3185B1831
:10A6A00000221A70C046BD4604B080BD2835002087
:10A6B00090B585B000AF786039607B68FB600C4A6C
:10A6C000FB682B212C204343D3185B181B780133E4
:10A6D000DCB2074AFB682B212C204343D3185B18BC
:10A6E000221C1A7000231800BD4605B090BDC0465C
:10A6F0002835002090B585B000AF78607B681B6876
:10A70000BB60BB683B4A2B212C204343D3185B180A
:10A7100000221A70BC6805F01DFC0100354A2C238C
:10A720006343D31804331960BB68324A2C214B436E
:10A73000D31804331868BB682C22534318331A000B
:10A740002C4BD418BB682B4A2C214B43D3182833ED
:10A750001A88294B210004F077F90300FB60FB689D
:10A76000002B05D00823FB181800FFF743FF3CE03F
:10A77000BB68204A2C214B43D31804331B68BA68AA
:10A780001100180004F034FBBB681A4A2C214B431B
:10A79000D31804331B68194A1100180004F032FB67
:10A7A000BB68144A2C214B43D31804331B6814494B
:10A7B0000A22180004F02CFBBB680E4A2C214B43E4
:10A7C000D31804331B680C4A1100180004F01EFB58
:10A7D000BB68084A2A212C204343D3185B18012266
:10A7E0001A70084B180002F051FBFB681800BD46B8
:10A7F00005B090BD283500205DA2010085A60100AE
:10A80000B1A6010044C8020090B585B000AF7860E1
:10A8100039600023BB600323FB607B68002B01D100
:10A820000623FB600023BB600FE0BB68364A2A2189
:10A830002C204343D3185B181B78002B02D1002334
:10A84000FB6005E0BB680133BB60BB68002BECD04C
:10A85000BB68002B4ED1BB682B4A18212C204343E8
:10A86000D3185B183A6813CA13C312681A60BB681E
:10A870003A68108A244A2C214B43D3182833021CEF
:10A880001A80B8683B681A6A1F492C234343CB18C7
:10A8900010331A60BA683B6859691B4B2C2042433D
:10A8A000D150B8683B689A6917492C234343CB18A9
:10A8B00008331A60B8683B68DA6913492C234343AC
:10A8C000CB180C331A600823FB181800FFF712FF8F
:10A8D0000300FB60FB68002B08D0BB681800FFF783
:10A8E000E7F90A4B180002F0D1FA07E00823FB1839
:10A8F0007B6003E0064B180002F0C8FAFB68180002
:10A90000BD4605B090BDC0462835002060C8020095
:10A910007CC8020080B588B000AFF860B9607A608A
:10A920000123FB61FB681B682C225A43764BD3182A
:10A93000BB61764B7B61FB681968BB685A687B68B2
:10A940005B68734802F0A2FABB692A229B5CDBB207
:10A950005BB2002B02DA0723FB61CFE0BB692A223E
:10A960009B5C042B00D0C3E0BB685B68DAB27B68F9
:10A970005B68DBB2D318DAB21323FB1802321A7009
:10A980001223FB1800221A70E0239A007B69002131
:10A990001800FDF70DFC1223FB181B787A69D318F9
:10A9A00030221A701223FB181A781223FB18013276
:10A9B0001A701323FB1819781223FB181A78554BB9
:10A9C000180002F063FA1323FB181B7898B21223C5
:10A9D000FB181B787A69D3181022BA181900FFF7F0
:10A9E00099F91223FB181B787A69D3181322BA1825
:10A9F00012781A701023FB181B88D9B21223FB1887
:10AA00001222BA1812788A181A70BB685968122371
:10AA1000FB181A78404B180002F038FA1223FB1882
:10AA20001B787A69D218BB685B681B0ADBB21370AB
:10AA30001223FB181A781223FB1801321A70122302
:10AA4000FB181B787A69D218BB685B68DBB213709D
:10AA50001223FB181A781223FB1801321A701223E2
:10AA6000FB181A782D4B1100180002F00FFA122370
:10AA7000FB181B787A69D018BB681968BB685B68DB
:10AA80001A0010F018FEBB685B68D9B21223FB18DD
:10AA90001222BA1812788A181A701223FB181A7820
:10AAA0001F4B1100180002F0F1F91223FB181B785C
:10AAB0007A69D0187B6819687B685B681A0010F0A7
:10AAC000FAFD1323FB181B789A1C164B1100180073
:10AAD00002F0DCF91323FB181B789BB202339AB205
:10AAE0007969BB691800FFF7D1F90300FB6105E044
:10AAF0000D4B180002F0CAF90423FB61FB69180032
:10AB0000BD4608B080BDC046283500205435002021
:10AB1000BCC802000CC9020050C9020090C9020062
:10AB2000B8C90200E0C9020004CA020080B584B0BE
:10AB300000AF78607B681B682C225A43104BD318F7
:10AB4000FB60FB682A229B5CDBB25BB2002B02DA63
:10AB50000723BB6006E0FB682A229B5C042B01D024
:10AB60000123BB600749FB6802221800FFF78EF93A
:10AB70000300BB60BB681800BD4604B080BDC04682
:10AB80002835002070C5020080B582B000AF00F00B
:10AB9000FFF903007B6000233B601CE03B68124A26
:10ABA0002C214B43D31814331B687A68D31A0F4AED
:10ABB00093420DD93B680C4A2A212C204343D318D9
:10ABC0005B181B78042B03D13B001800FFF7AEFF86
:10ABD0003B6801333B603B68002BDFD0002318004B
:10ABE000BD4602B080BDC0462835002090E200007E
:10ABF00080B500AFC046BD4680BDC04680B586B0BA
:10AC000000AF0200BB1D1A8000233B61BB1D1B88E7
:10AC1000FB600C23FA181023FB1811001800FEF734
:10AC200063FF03007B617B69002B01D000233B6144
:10AC30003B691800BD4606B080BDC04680B582B0F5
:10AC400000AF78607B681800FEF7C4FFC046BD46C1
:10AC500002B080BD80B582B000AF78600A00BB1C36
:10AC60001A807B681800BD4602B080BD80B586B0F2
:10AC700000AFF860B960BB1D1A80BB1D1B880222A3
:10AC80001900042003F028FC03007B617B69002B82
:10AC900014D07B69BA685A607B69BA1D12885A81E0
:10ACA0007B69BA1D12881A81FA687B691100180045
:10ACB00009F06AFD7B69180003F06CFDC046BD46D3
:10ACC00006B080BD80B58AB000AFF860B9607A6028
:10ACD000FB68DB6D3B6201235B427B621E23FB183A
:10ACE000BA6852891A80BB685B891800FFF786FF33
:10ACF0000300BB61BB69002B1DD0BB685968BB68F2
:10AD00005B891A00BB69180010F0D5FC3B6A186813
:10AD10001E23FB181A88BB6919000FF06DFE030093
:10AD20007B617B69002B04D0BB691800FFF786FFAD
:10AD300001E000237B627B6A1800BD460AB080BD3B
:10AD400080B582B000AF78607B6862228021C90044
:10AD500099527B686B22042199547B68180003F098
:10AD600039FB7B6860220121995400231800BD46FD
:10AD700002B080BD80B58AB004AF7860396000232E
:10AD80003B6100237B6115E064497A6913005B0134
:10AD90009B1A9B005A587B689A4208D17A69130023
:10ADA0005B019B1A9B005D4A9B183B6105E07B6938
:10ADB00001337B617B69002BE6D03B681B78022B5B
:10ADC00000D17BE0032B00D18CE0012B00D0A0E070
:10ADD0003B69002B00D097E000237B6117E04F49CF
:10ADE0007A6913005B019B1A9B005B58002B0BD107
:10ADF0007A6913005B019B1A9B00484A9B183B61D0
:10AE00003B697A681A6005E07B6901337B617B6985
:10AE1000002BE4D07B68180002F010FF0300FB60F9
:10AE20007B6819783B69692299547B6859783B693A
:10AE30006A2299547B6899783B696B2299547B68A4
:10AE400059793B696C2299547B6899793B696D22E9
:10AE500099547B68D9793B696E2299543B69682281
:10AE6000062199543B69181D002302932C4B019332
:10AE70003B69009300230022002103F0F1F93B69B4
:10AE8000284A5A613B6900229A617B681A683B69CB
:10AE9000DA617B6804331A683B691A623B69DB69D3
:10AEA00002225A403B69DA613B69442208219954E5
:10AEB0003B691D4A5A6501F0B5FE2AE03B69002B4B
:10AEC00024D03B690433180003F044FA3B690022A4
:10AED0001A607B68180002F0E7FE0300FB6001F0D7
:10AEE000DDFE13E03B69002B12D03B69181D3B6867
:10AEF00059683B681B891A00FFF7B8FE3B685B681E
:10AF00001800FFF79BFE03E0C04602E0C04600E0E9
:10AF1000C046C046BD4606B080BDC0469C57002016
:10AF200041AD0100FE800000C5AC010080B584B0D9
:10AF300000AF3B00134A5A603B00134A1A6002F00C
:10AF400063FE0300FB60FB68002B16D13B0018007A
:10AF50000FF022FD0300FB600023BB600AE00B49F9
:10AF6000BA6813005B019B1A9B0000225A50BB6811
:10AF70000133BB60BB68002BF1D0FB681800BD46F5
:10AF800004B080BD75AD0100185800209C5700200A
:10AF900080B582B000AF3B1D1800FEF7C7FC7B6890
:10AFA0001800BD4602B080BD80B582B000AF02007F
:10AFB000FB1D1A70064BFA1D127811001F220A4061
:10AFC000012191400A001A60C046BD4602B080BD12
:10AFD00000E100E080B582B000AF0200FB1D1A70F6
:10AFE000084AFB1D1B7819001F230B4001219940C3
:10AFF0000B001900C0235B00D150C046BD4602B013
:10B0000080BDC04600E100E0B0B582B000AF0200F4
:10B010003960FB1D1A70FB1D1B787F2B32D92F4C1A
:10B02000FB1D1B781A000F231340083B99082B4A7D
:10B03000FB1D1B7818000F230340083B9B080633B9
:10B040009B00D31804331B68FA1D127810000322EA
:10B050000240D200FF2090400200D2431A403B68D9
:10B060009B01FF201840FB1D1B781D0003232B4074
:10B07000DB00984003001A438B1D9B00E318043348
:10B080001A6027E0164CFB1D1B785BB29B08144925
:10B09000FA1D127852B29208C03292005258F91D2D
:10B0A0000978080003210140C900FF208840010001
:10B0B000C94311403A689201FF201040FA1D1278EE
:10B0C000150003222A40D200904002000A43C033F8
:10B0D0009B001A51C046BD4602B0B0BD00ED00E075
:10B0E00000E100E080B582B000AF7860A023DB050E
:10B0F0007A68C132FF3292000321D150C046BD466A
:10B1000002B080BD80B582B000AF78600A00FB1C41
:10B110001A70A023DB05FA1C1278920011007A68DD
:10B12000C132FF329200D150C046BD4602B080BD50
:10B1300080B584B000AF78607B689B68FB607B68FB
:10B14000DA68FB68D31A1800BD4604B080BDC0465B
:10B1500080B500AF084B00221A70084B0122DA605C
:10B16000064B01225A60054AA023DB000021D15082
:10B17000C046BD4680BDC046F838002000200040D3
:10B1800080B582B000AF094B0122DA60084B012282
:10B190001A703B0003221A70064B1B683A0010001D
:10B1A0009847C046BD4602B080BDC0460020004062
:10B1B000F8380020F438002080B582B000AF144B7E
:10B1C0001B78DBB2022B02D0124B01229A60FA1DCF
:10B1D000114B11001800FDF75BF8031E02D0FFF7BA
:10B1E000CFFF12E00B4AC2239B008021D150094AB5
:10B1F000FB1D1B781900094BD150054B02221A7018
:10B20000044AC1239B008021D150BD4602B080BDBD
:10B21000F838002000200040E43800201C05000021
:10B2200080B500AF064B1800FFF782FF031E02D067
:10B23000FFF7C2FF01E0FFF7A3FFC046BD4680BD98
:10B24000E438002080B500AF084B1B78DBB2012B3F
:10B2500002D0022B03D006E0FFF77AFF03E0034B96
:10B2600003221A70C046C046BD4680BDF838002093
:10B2700080B500AF114B1B78DBB2002B02D0032B43
:10B2800015D018E00E4AA023DB000421D1500C4B4E
:10B2900001221A600B4B1800FFF74AFF031E02D071
:10B2A000FFF78AFF07E0054B01221A7003E0034B0A
:10B2B00002221A70C046C046BD4680BDF838002044
:10B2C00000200040E438002080B500AF094B1B7817
:10B2D000DBB2012B0ADB022B05DD032B00D005E0DE
:10B2E000FFF736FF03E0FFF79BFF00E0C046C046D4
:10B2F000BD4680BDF838002080B500AF044B1B78F8
:10B30000DBB2012B01D1FFF757FFC046BD4680BD20
:10B31000F838002080B500AFFFF71AFFC046BD46E1
:10B3200080BDC04680B582B000AF0200FB1D1A7020
:10B33000FB1D1B78042B13D89A000C4BD3181B68E9
:10B340009F46FFF77FFF0CE0FFF792FF09E0FFF752
:10B35000BBFF06E0FFF7D0FF03E0FFF7DBFF00E0F5
:10B36000C046C046BD4602B080BDC04628CA0200E5
:10B3700080B582B000AF78600A00FB1C1A707B6851
:10B38000180000F0ADFF031E03D00020FFF7CAFF36
:10B3900002E00120FFF7C6FFC046BD4602B080BDF7
:10B3A00080B588B000AF364A84235B00D358002BA9
:10B3B00033D0334A84235B000021D150304AA32389
:10B3C000DB00D358DAB22F4B11001800FCF738FF1E
:10B3D0000300FB61FB69002B0ED01023FB18012238
:10B3E0001A701023FB18FA695A60274B1B68102249
:10B3F000BA181000984710E0224B1800FFF798FE8B
:10B40000031E012B09D10823FB1800221A701E4BC2
:10B410001B680822BA1810009847194A8E235B004F
:10B42000D358002B07D0164A8E235B000021D15041
:10B430000320FFF777FF124A92235B00D358002BBB
:10B4400019D00F4A92235B000021D1500C4A90235F
:10B45000DB00D358BB610A499023DB00BA69CA50AC
:10B460003B0002221A703B00BA695A60064B1B6807
:10B470003A0010009847C046BD4608B080BDC0469F
:10B4800000200040D4380020F438002080B500AF00
:10B49000154AA023DB000421D150134A84235B000A
:10B4A0000021D150104A8E235B000021D1500E495B
:10B4B0000D4A0E4BD358012293430C4A8B500A4934
:10B4C000A123DB0001225242CA500749A223DB001C
:10B4D00001225242CA50044B01229A60024B0122BF
:10B4E0001A60C046BD4680BD002000406C050000CB
:10B4F00080B582B000AF7860174AA023DB0004213A
:10B50000D150154A84235B000021D150124A8E236A
:10B510005B000021D15010490F4A104BD358012233
:10B5200013430E4A8B500C4A7B68DB781900A22328
:10B53000DB00D150084A7B689B781900A123DB000F
:10B54000D150054B01229A60034B01221A60C0467C
:10B55000BD4602B080BDC046002000406C05000022
:10B5600080B588B000AFF860B9607A601A00FB1C43
:10B570001A70864B00221A70854B7A681A60BB6875
:10B58000002B01D10723FCE0BB681968BB685B682E
:10B590009AB2804B1800FCF725FE0300FB61FB69A3
:10B5A000002B01D0FB69ECE0BB689968BB68DB68E5
:10B5B0009AB2794B1800FCF715FE0300FB61FB699A
:10B5C000002B01D0FB69DCE0FB685B781800FFF71B
:10B5D00089FDFB681B7800211800FFF793FD6F4A77
:10B5E000FB685B7819006E4BD1506C4AFB681B7886
:10B5F00019006C4BD1506949FB689B686A4A8B50B3
:10B60000FB685B79002B04D0644A684B0E21D15053
:10B6100003E0624A654B0021D150FB681B79022B85
:10B6200000D077E000F022FD03001A000123534010
:10B63000DBB2002B08D000F0D9FC0300FB61FB69F2
:10B64000002B01D0FB699CE01823FB181800032392
:10B650001A000021FCF7ACFD1823FB1801225A70D8
:10B66000FB689B781A001823FB181900100000F0E3
:10B6700009FD0300FB61FB69002B01D0FB6980E041
:10B680004649A223DB0001225242CA50434AFB68CA
:10B690009B781900A123DB00D15040493F4A434B1E
:10B6A000D35801221343414A8B501423FB18032221
:10B6B0001A701423FB1800225A701423FB1800225E
:10B6C0009A701423FB180022DA70FB68DB781800EC
:10B6D000374A1423FB18190000F024FD0300FB6116
:10B6E000FB69002B01D0FB694BE0FB68DB78012193
:10B6F000180000F07DFDFB68DB78180000F0F0FD1D
:10B70000031E03D00020FFF70DFE14E00120FFF719
:10B7100009FE10E0FB681B79012B07D1FB681800BC
:10B72000FFF7E6FE194B01221A7004E0FFF7AEFEA8
:10B73000164B01221A70BB6A1B88002B08D11D4BC7
:10B740001B785A1CD1B21B4A11709AB2BB6A1A807C
:10B750001249C2239B0001225242CA500F49C12301
:10B760009B00A1229200CA500220FFF733FCFB1C71
:10B770001B7819000220FFF747FC0220FFF714FC9A
:10B7800000231800BD4608B080BDC046F838002030
:10B79000F4380020D4380020E43800200020004095
:10B7A0000C05000014050000240500006C050000D5
:10B7B00071B301006420002080B582B000AF7860D2
:10B7C0007A68054B11001800FCF762FD03001800B1
:10B7D000BD4602B080BDC046D438002080B584B0DC
:10B7E00000AF0200FB1D1A70FB1D1A78074B1100F9
:10B7F0001800FCF725FD0300FB600220FFF792FD17
:10B80000FB681800BD4604B080BDC046E438002087
:10B8100080B582B000AF0200FB1D1A70064BFA1D06
:10B82000127811001F220A40012191400A001A607B
:10B83000C046BD4602B080BD00E100E080B582B0E8
:10B8400000AF0200FB1D1A70084AFB1D1B7819008F
:10B850001F230B40012199400B001900C0235B00FE
:10B86000D150C046BD4602B080BDC04600E100E0F8
:10B87000B0B582B000AF02003960FB1D1A70FB1D2D
:10B880001B787F2B32D92F4CFB1D1B781A000F23FE
:10B890001340083B99082B4AFB1D1B7818000F2307
:10B8A0000340083B9B0806339B00D31804331B68F6
:10B8B000FA1D1278100003220240D200FF209040AF
:10B8C0000200D2431A403B689B01FF201840FB1D39
:10B8D0001B781D0003232B40DB00984003001A4314
:10B8E0008B1D9B00E31804331A6027E0164CFB1DE8
:10B8F0001B785BB29B081449FA1D127852B2920869
:10B90000C03292005258F91D097808000321014005
:10B91000C900FF2088400100C94311403A689201E4
:10B92000FF201040FA1D1278150003222A40D20091
:10B93000904002000A43C0339B001A51C046BD46E6
:10B9400002B0B0BD00ED00E000E100E080B582B0E3
:10B9500000AF0200FB1D1A70BB1D0A1C1A70BB1D34
:10B960001A78FB1D1B785BB211001800FFF780FFEF
:10B97000FB1D1B785BB21800FFF760FFFB1D1B78F7
:10B980005BB21800FFF744FFC046BD4602B080BD61
:10B9900080B582B000AF0200BB1D1A80BB1D1B88A2
:10B9A000180000F01DF803001B68013B5A42534188
:10B9B000DBB21800BD4602B080BDC04680B582B083
:10B9C00000AF0200BB1D1A80BB1D1B88180000F0D1
:10B9D00007F8030000221A60C046BD4602B080BDD1
:10B9E00080B582B000AF0200BB1D1A80BB1D1B8852
:10B9F000034A944663441800BD4602B080BDC04669
:10BA00000060004080B582B000AF78600449C12377
:10BA10009B007A68CA50C046BD4602B080BDC04691
:10BA20000060004080B582B000AF7860044AC12356
:10BA30009B00D3587A6813401800BD4602B080BD01
:10BA40000060004080B582B000AF78600849084AC5
:10BA50007B684533FF339B009B5801221A437B6868
:10BA60004533FF339B005A50C046BD4602B080BDEF
:10BA70000060004090B585B000AFF860B960FB1D74
:10BA80001A701649154AFB684533FF339B009B58D3
:10BA9000134A1A40FB684533FF339B005A500F4846
:10BAA0000E4AFB684533FF339B009A58BB68190266
:10BAB000F8235B011940FB1D1B781B041C00C023ED
:10BAC0009B0223400B431A43FB684533FF339B0023
:10BAD0001A50C046BD4605B090BDC046006000404B
:10BAE000FFE0FCFF80B582B000AF7860064A7B685B
:10BAF0004533FF339B009A58F8235B0113401B0A20
:10BB00001800BD4602B080BD0060004080B582B024
:10BB100000AF7860074A7B684533FF339B009A5833
:10BB2000C0239B0213401B0CDBB21800BD4602B0C1
:10BB300080BDC0460060004090B585B000AFF860A1
:10BB4000B9601900FB1D1A70BB1D0A1C1A701A4936
:10BB5000194AFB684533FF339B009B58174A1A402C
:10BB6000FB684533FF339B005A501348124AFB6869
:10BB70004533FF339B009A58BB681902F8235B01D9
:10BB80001940FB1D1B781B041C00C0239B02234093
:10BB90001943BB1D1B781B051C0080235B0323403E
:10BBA0000B431A43FB684533FF339B001A50C046D2
:10BBB000BD4605B090BDC04600600040FFE0ECFF10
:10BBC00080B582B000AF7860A023DB057A68C1320F
:10BBD000FF3292000321D150C046BD4602B080BD65
:10BBE00080B582B000AF78600A00FB1C1A70A023F9
:10BBF000DB05FA1C1278920011007A68C132FF321C
:10BC00009200D150C046BD4602B080BD80B584B020
:10BC100000AF7860A023DB057A68C132FF32920062
:10BC2000D35802229343FB60A023DB057A68C1321C
:10BC3000FF329200F968D150C046BD4604B080BDC5
:10BC400080B582B000AF78600A00FB1C1A70A02398
:10BC5000DB05A022D2057968C131FF3189008A58FD
:10BC60000E4911407A68C132FF329200D150A023B0
:10BC7000DB05A022D2057968C131FF3189008A58DD
:10BC8000F91C0978090411437A68C132FF32920025
:10BC9000D150C046BD4602B080BDC046FFFFFCFF8C
:10BCA00080B582B000AF7860A023DA0501217B68FF
:10BCB0009940A123DB00D150C046BD4602B080BDF3
:10BCC00080B582B000AF7860A023DB0501217A68DF
:10BCD00091400A0002495A50C046BD4602B080BD9C
:10BCE0000C05000080B582B000AF7860A023DA05B3
:10BCF000A223DB00D2587B68DA40130001221340F4
:10BD00001800BD4602B080BD80B500AFA023DA05A3
:10BD1000A223DB00D3581800BD4680BD80B582B099
:10BD200000AF7860A023DB057A68C132FF32920051
:10BD3000D258C0239B0213401B0CDBB21800BD4637
:10BD400002B080BD80B582B000AF7860074A2C2178
:10BD50007B68D3185B181B785BB201335A1E934182
:10BD6000DBB21800BD4602B080BDC046FC380020E2
:10BD700080B582B000AF78600E4A2C217B68D31862
:10BD80005B181B785BB2002B0ADB0A4A2C217B680C
:10BD9000D3185B181B785BB2032B01DC012300E096
:10BDA00000231A1C01231340DBB21800BD4602B069
:10BDB00080BDC046FC38002080B582B000AF7860FE
:10BDC000084A2C217B68D3185B181B7801225BB2D0
:10BDD000032B01DC00231A1CD3B21800BD4602B0AD
:10BDE00080BDC046FC38002080B582B000AF7860CE
:10BDF000064A2C217B68D3185B181B78DB43DBB227
:10BE0000DB09DBB21800BD4602B080BDFC38002063
:10BE100080B584B000AFF860B9607A601A00FB1C8E
:10BE20001A70BB68D8B2114A2C21FB68D3185B1872
:10BE3000021C1A700D4ABB689B00D31804337A6841
:10BE40001A60FB1C1B7801225340DBB2002B09D087
:10BE5000BB68043BFA68D0B2044A4C21D3185B1883
:10BE6000021C1A70C046BD4604B080BDFC380020DC
:10BE700080B582B000AF7860054A2C217B68D3186A
:10BE80005B18FE221A70C046BD4602B080BDC04697
:10BE9000FC38002080B582B000AF7860054A2C21C4
:10BEA0007B68D3185B18FF221A70C046BD4602B0EB
:10BEB00080BDC046FC38002080B582B000AF7860FD
:10BEC000054A2C217B68D3185B181B785BB21800DD
:10BED000BD4602B080BDC046FC38002080B582B0AF
:10BEE00000AF7860054A4C217B68D3185B181B783B
:10BEF000DBB21800BD4602B080BDC046FC38002051
:10BF000080B582B000AF7860044A7B689B00D3188C
:10BF100004331B681800BD4602B080BDFC38002009
:10BF200080B588B000AFF860B960FB1D1A701F23A0
:10BF3000FB18FF221A70FB1D1B78002B01D0002379
:10BF400000E004237B61FB1D1B78002B01D0042340
:10BF500000E00A233B617B69BB6116E0114ABB69C3
:10BF60009B00D31804331B6801330BD1FB1D1B78D6
:10BF7000BA68B969F868FFF74BFF1F23FB18BA6965
:10BF80001A7006E0BB690133BB61BA693B699A422A
:10BF9000E4D31F23FB181B785BB21800BD4608B022
:10BFA00080BDC046FC38002080B582B000AF0200E2
:10BFB000FB1D1A70FB1D1B780B4A9B00D318043322
:10BFC000012252421A60FB1D1B78032B08D9FB1D6E
:10BFD0001B78043B044A4C21D3185B18FF221A70CB
:10BFE000C046BD4602B080BDFC38002080B582B09E
:10BFF00000AF1D4B1B78002B01D0082330E0FB1D48
:10C0000000221A7009E0FB1D1B781800FFF742FFA1
:10C01000FB1D1A78FB1D01321A70FB1D1B781F2BAC
:10C02000F1D9FB1D00221A7009E0FB1D1B781800D6
:10C03000FFF7BAFFFB1D1A78FB1D01321A70FB1DBA
:10C040001B78092BF1D901210620FFF77FFC802303
:10C050001B061800FFF7D6FC034B01221A700023C1
:10C060001800BD4602B080BDFC38002080B500AF8E
:10C07000034B1B785A1E9341DBB21800BD4680BDAE
:10C08000FC38002090B585B000AF7860396000239F
:10C09000FB607B681800FFF755FE031E02D00823E3
:10C0A000FB603AE03B689B78002B1ED00B23FC180A
:10C0B0007B68012200211800FFF732FF0300237084
:10C0C0000B23FB181B785BB201330BD00B23FB183F
:10C0D000002018563B681A783B685B787968FFF750
:10C0E0002BFD06E00423FB6003E07B681800FFF7EC
:10C0F000BFFEFB68002B10D17B681800FFF760FDC6
:10C100003B685B78012B04D17B681800FFF7C8FD02
:10C1100003E07B681800FFF7D3FDFB681800BD46FD
:10C1200005B090BD90B587B000AFF860B9607A6097
:10C1300000237B61FB681800FFF756FE031E02D048
:10C1400008237B614DE0BB68DA781323FC1879681B
:10C15000FB681800FFF7E4FE030023701323FB18AD
:10C160001B785BB201333AD0BB689B78002B04D0BC
:10C17000FB681800FFF74AFD06E0BB685A78FB68C9
:10C1800011001800FFF72CFDBB68DB78002B0AD0EC
:10C190001323FB1800201856BB681A78FB68190097
:10C1A000FFF768FC1DE01323FB181B785BB2043B10
:10C1B0001322BA18127852B2043A0C494C208A1849
:10C1C00012181178BA6812789201D2B20A43D0B22A
:10C1D000064A4C21D3185B18021C1A7001E0042394
:10C1E0007B617B691800BD4607B090BDFC3800201C
:10C1F00090B587B000AF78600A00FB1C1A707B68AE
:10C200001800FFF7D9FD031E3CD07B681800FFF72C
:10C2100053FE0300043B1622BC181800FFF75EFE15
:10C22000030023701523FB181622BA1812789209FE
:10C230001A701523FB181B78032B0FD1FFF764FD31
:10C24000010001227B689A4013000B4001D00322B9
:10C2500000E002221723FB181A700AE01523FB18CE
:10C260001B78012B01D1022200E003221723FB18C7
:10C270001A701723FB181A787B6811001800FFF753
:10C28000DFFC28E07B681800FFF772FD031E22D058
:10C290007B681800FFF710FE03003B613B699BB20F
:10C2A00040339AB20E23FB1892001A803B691800A3
:10C2B000FFF7C8FB0E23FB181B881800FFF77EFB57
:10C2C000FB1C1B78002B06D001223B699A4013000F
:10C2D0001800FFF797FBC046BD4607B090BDC046AB
:10C2E00080B582B000AF78607B681800FFF7FAFC79
:10C2F00003005A1E9341DBB21800BD4602B080BD58
:10C3000090B58FB000AF00237B6300233B632A23EB
:10C31000FB18802252001A8001237B620023FB62FB
:10C3200027E02A23FB181B881800FFF731FB031EA8
:10C3300012D00122FB6A9A4013001800FFF772FB2B
:10C34000031E09D02A23FB181B881800FFF736FBB1
:10C350007A6B7B6A13437B637B6A5B007B622A2375
:10C36000FB182A22BA18128804321A80FB6A013399
:10C37000FB62FB6A032BD4D9BE235B001800FFF7D6
:10C3800007FB031E0DD0BE235B001800FFF716FB52
:10C390007B6B8022120613437B63FFF7B5FC03001F
:10C3A0003B637B6B0F2213402CD001237B62002365
:10C3B000FB6224E07B6A7A6B13401AD0FB6A180098
:10C3C000FFF790FB03003B621F23FC18FB6A180079
:10C3D000FFF79CFB03002370FB6A1800FFF790FD3A
:10C3E0000300BB611F23FB1819783A6ABB69100070
:10C3F00098477B6A5B007B62FB6A0133FB62FB6AE6
:10C40000032BD7D97B6B002B68DA0023FB6262E039
:10C410001723FC18FB6A1800FFF760FD0300237068
:10C420001723FB181B78C02293433B610F23FB1893
:10C430001722BA18127892091A7001223B699A40A1
:10C4400013007B623B691800FFF7B6FC031E3FD068
:10C450003B691800FFF730FD03001800FFF750FD9F
:10C460000300BB60BB68002B32D0FC1D3B69180089
:10C47000FFF754FC030023707B6A3A6B134003D030
:10C48000FB1D1B78022B07D07B6A3A6B13401FD130
:10C49000FB1D1B78032B1BD10F23FB181B78032BD1
:10C4A0000FD1FB1D1B78022B01D1032200E00222D9
:10C4B000BB1D1A70BB1D1A783B6911001800FFF7ED
:10C4C000BFFB0F23FB1819783A69BB681000984727
:10C4D000FB6A0133FB62FB6A052B99D9C046BD4656
:10C4E0000FB090BD80B500AFBFF34F8F024B034A32
:10C4F000DA60BFF34F8FFEE700ED00E00400FA05BD
:10C5000040DF7047C046180070DF7047C046180013
:10C5100071DF7047C046180073DF7047C0461800CF
:10C520007CDF7047C046180080B584B000AFF8606B
:10C53000B9607A607B68BA68F968024800F0A6FCC6
:10C54000FEE7C04688CA020080B582B000AF020094
:10C550003960BB1D1A80BB1D1B883A68034819004F
:10C56000FFF7E2FFC046BD4602B080BDEFBEADDEC4
:10C5700080B582B000AF00F04BFC03007B607B68AD
:10C580003B603B68002B05D03B680022002118006F
:10C59000FFF7CAFFC046BD4602B080BD80B582B07D
:10C5A00000AF78600A00FB1C1A70164B1B78002B3A
:10C5B0001FD0154B1B785A1E9341DBB2012253400A
:10C5C000DBB21A1C01231340DAB20F4B1A700E4B68
:10C5D0001B78002B06D00D4A0D4B1100180000F0FF
:10C5E0008FFA0AE0094A0B4B1100180000F088FA94
:10C5F00003E0094B180000F049FCC046BD4602B0FC
:10C6000080BDC04675390020743900205CCA020024
:10C6100080CA020084CA0200BCCA020080B584B08D
:10C6200000AFFFF7E3FC0300FB60FB68BB60BB6887
:10C63000002B05D0BB68002200211800FFF774FF13
:10C640003A00124B1000190004231A000FF033F8BF
:10C650003B0003225A700E4A3B0019001220FFF7DC
:10C6600061FD0300FB60FB687B607B68002B05D0ED
:10C670007B68002200211800FFF756FF01211220DD
:10C68000FFF7B6FDC046BD4604B080BDECCA02004F
:10C690009DC5010080B596B000AF5723FB1804225A
:10C6A0001A700C23FB181A780F218A43111C0122DF
:10C6B0000A431A700C23FB181A780F210A40111C28
:10C6C00010220A431A705F4B18000EF0FDFF0300A2
:10C6D0009AB25C490C23FB181800FFF721FF0300F6
:10C6E0003B653B6DFB64FB6C002B05D0FB6C0022B3
:10C6F00000211800FFF718FF3B1D1800FFF708FF87
:10C7000003003B653B6DBB64BB6C002B05D0BB6C71
:10C71000002200211800FFF707FF3B1D00229A713D
:10C720003B1D00221A703B1D1800FFF7EDFE0300B1
:10C730003B653B6D7B647B6C002B05D07B6C0022E2
:10C7400000211800FFF7F0FE3B1D9A793E4B1A704E
:10C750003B1D5A793C4B5A703B1D1A793A4B9A70E3
:10C76000394BFF22DA70384BFE221A713B1DDA7802
:10C77000354B5A713B1D9A78334B9A713B1D5A7851
:10C78000314BDA713B1D1B78002B07D12E4B1B78E8
:10C7900002229343DAB22C4B1A7006E02A4B1B7824
:10C7A00002221343DAB2284B1A703A00274B1000CA
:10C7B000190004231A000EF07EFF1023FB1830220C
:10C7C00000211800FBF7F4FC1023FB1802221A705A
:10C7D0001023FB185722BA181278DA701023FB18AE
:10C7E00001221A821023FB183A005A611023FB1809
:10C7F0000021180001F024F803003B653B6D3B6409
:10C800003B6C002B05D03B6C002200211800FFF789
:10C810008BFE0F4B142200211800FBF7C9FC0C4BB8
:10C8200000221A700A4B00225A60094B00221A7229
:10C83000074BA0221A82064B00225A82C046BD46F0
:10C8400016B080BDF0CA020018580020FCCA0200D1
:10C850005039002080B582B000AF0C4B1800FFF7B4
:10C860005BFE03007B607B683B603B68002B05D070
:10C870003B68002200211800FFF756FE044B180009
:10C8800000F004FBC046BD4602B080BD5039002018
:10C8900000CB020080B582B000AF78607B681B8857
:10C8A000102B02D0112B05D00BE0084B180000F024
:10C8B000EDFA06E0064B180000F0E8FAFFF7CAFFB1
:10C8C000C046C046BD4602B080BDC04618CB02007F
:10C8D00038CB020080B582B000AF78607B6818006A
:10C8E0000EF0ACFB7B681800FFF7D4FFC046BD46D6
:10C8F00002B080BD80B584B000AF144B144948220B
:10C90000082001F0CDFB0300FB60FB68BB60BB6847
:10C91000002B05D0BB68002200211800FFF704FEA1
:10C920000C4B180001F002FC03007B607B683B604D
:10C930003B68002B05D03B68002200211800FFF760
:10C94000F3FDC046BD4604B080BDC046CDE1010048
:10C9500078390020D5C8010080B582B000AF0B4BFC
:10C960001A000C218020FBF777FD03007B607B68B9
:10C970003B603B68002B05D03B680022002118007B
:10C98000FFF7D2FDC046BD4602B080BDC0390020D1
:10C9900080B584B000AFFDF721F80300FB60FB68B1
:10C9A000BB60BB68002B05D0BB68002200211800CB
:10C9B000FFF7BAFD01F042FCFEF7B8FA0300FB6096
:10C9C000FB687B607B68002B05D07B680022002120
:10C9D0001800FFF7A9FDFDF741FEC046BD4604B0B3
:10C9E00080BDC04680B582B000AF786006F018FE0A
:10C9F000FEF7CAF8C046BD4602B080BD90B58DB006
:10CA000000AF7860314B1B7801225340DBB2002B22
:10CA100026D02F4B180000F039FA0C23FB182D4AB2
:10CA200013CA13C312681A600C23FB182A4A1A820D
:10CA30000C23FB18294A1A620C23FB18284A5A6156
:10CA40000C23FB180022DA610C23FB1800229A61E8
:10CA50000C23FA18234B11001800FDF7D5FE30E027
:10CA6000214B1B685A1C204B1A601F4B1A68E1238C
:10CA70009B009A4225DD1D4B1B785A1E9341DBB269
:10CA800001225340DBB21A1C01231340DAB2174BC8
:10CA90001A70164B1B78002B06D0154A154B110047
:10CAA000180000F02DF805E0114A134B1100180092
:10CAB00000F026F8114B180000F0E8F90A4B0022AC
:10CAC0001A60C046BD460DB090BDC0467539002005
:10CAD0005CCB02003CCA02005B07000015CD0100E0
:10CAE0004CCA02006C3900207039002076390020D1
:10CAF0006CCA020080CA020084CA020084CB020011
:10CB000080B588B000AF786039601423FB183A68AC
:10CB10001A603B6818000EF0D7FD02001423FB18C2
:10CB20005A607B6818000EF0CFFD02000C23FB1842
:10CB30005A600C23FB187A681A600C23FA18142325
:10CB4000F9180D4B1800FDF7E5FE0300FB61FB69CA
:10CB5000002B06D13A687968084B180000F096F966
:10CB600005E0FA69064B1100180000F08FF9C04685
:10CB7000BD4608B080BDC0466C390020A4CB020081
:10CB8000DCCB020080B588B002AF204A204B009376
:10CB90001300032203211F20FCF71AFD03007B6111
:10CBA0007B693B613B69002B05D03B69002200217A
:10CBB0001800FFF7B9FC174A174B01211800FCF7C2
:10CBC000C5FD0300FB60FB68BB60BB68002B05D0A4
:10CBD000BB68002200211800FFF7A6FC0F4A104B8B
:10CBE00001211800FCF7B2FD0300FB60FB687B60CD
:10CBF0007B68002B05D07B68002200211800FFF71E
:10CC000093FCC046BD4606B080BDC046A84000208B
:10CC10008D990100FDC9010068390020E5C90100B6
:10CC20006439002080B584B000AF194B180000F0C3
:10CC30002DF906F0F5FC174B1B6800223321180074
:10CC4000FCF7FCFD0300FB60FB68BB60BB68002BCE
:10CC500005D0BB68002200211800FFF765FC0E4BD1
:10CC6000186880231B0100221900FCF7E7FD030070
:10CC7000FB60FB687B607B68002B05D07B68002233
:10CC800000211800FFF750FCC046BD4604B080BD2F
:10CC900000CC0200643900206839002080B584B0DF
:10CCA00000AF184B180000F0F1F8174B1B68180084
:10CCB000FCF70CFE0300FB60FB68BB60BB68002B4D
:10CCC00005D0BB68002200211800FFF72DFC0F4B98
:10CCD0001B681800FCF7FAFD0300FB60FB687B6033
:10CCE0007B68002B05D07B68002200211800FFF72D
:10CCF0001BFC074B00221A70FFF7F4FBC046BD4631
:10CD000004B080BD20CC02006439002068390020C6
:10CD10007539002080B582B000AF786039603B681B
:10CD20001B78002B02D0012B0CD013E00E4B180007
:10CD300000F0ACF83B68DB68002B10D10B4B0122F4
:10CD40001A700CE00A4B180000F0A0F8074B002204
:10CD50001A7005E0074B180000F098F800E0C04694
:10CD6000C046BD4602B080BD40CC020075390020EF
:10CD700060CC020084CC020080B582B000AFFFF727
:10CD8000F7FBFFF7FFFEFFF749FCFFF7B3FDFFF7E7
:10CD900081FCFFF7FDFDFFF7DFFDFFF75BFD0B4BB0
:10CDA000180000F073F8FBF7A3FCFFF7A9FB0300E2
:10CDB0007B607B683B603B68002BF4D03B680022C3
:10CDC00000211800FFF7B0FBEDE7C046A4CC02003D
:10CDD00080B582B000AF78607B681B78022B07D1EA
:10CDE0007B685B68002200211800FFF79DFB0AE0CA
:10CDF0007B681B78012B06D17B685B6800220021D1
:10CE00001800FFF791FBC046BD4602B080BDC0468A
:10CE100090B58DB002AF184B1B78002B01D00023CA
:10CE200025E01823FB18154A13CA13C31623FB1851
:10CE300000221A803B1D124A1A603B1D01225A60D3
:10CE40003B1D104A9A603B1D80229200DA600E4A18
:10CE5000391D1823F8181623FB1800930323FEF737
:10CE60007FFB03007B62044B01221A707B6A18006F
:10CE7000BD460BB090BDC04658420020B8CC020061
:10CE80005C42002060420020D1CD01000FB480B58B
:10CE900082B000AF1423FB187B607A683B691100F5
:10CEA00018000EF019FCC046BD4602B080BC08BC9C
:10CEB00004B0184772DF7047C046180079DF70472A
:10CEC000C04618007DDF7047C046180064DF704719
:10CED000C046180080B582B000AF02003960BB1DAB
:10CEE0001A80BB1D1B88DAB23B681A703B6801339D
:10CEF000BA1D1288120A92B2D2B21A700223180016
:10CF0000BD4602B080BDC04680B588B000AFF860B5
:10CF1000B9607A601C23FB187A6812781A701C2397
:10CF2000FB181B7802331F2B04DCFB685B78023391
:10CF30001F2B01DD0C2380E01C23FB181B789AB209
:10CF40001E23FB181D218A1A1A801623FB181E2285
:10CF5000BA1812881A801C23FB181B780233BA688F
:10CF6000D3181622BA1811001800FFF7ABFF030000
:10CF7000BB61BB69002B01D0BB695EE0FB681B781D
:10CF8000022B12D11623FB181B881E22BA181288F6
:10CF90009A420AD31D23FB1809221A701E23FB187C
:10CFA0001622BA1812881A801BE01D23FB180822CB
:10CFB0001A70FB685B78002B0DD0FB685B789BB226
:10CFC0001E22BA1812889A4205D3FB685A781E238B
:10CFD000FB181A8005E01E23FB181622BA181288C7
:10CFE0001A801C23FB181B781C22BA18591C1170BC
:10CFF0001A00BB689B181E22BA181288D2B20132DE
:10D00000D2B21A701C23FB181B781C22BA18591CA8
:10D0100011701A00BB689B181D22BA1812781A707A
:10D020007B681A781E23FB181B88DBB2D318DBB28F
:10D030000233DAB27B681A7000231800BD4608B0CC
:10D0400080BDC04680B584B000AF786039603B6871
:10D050001B7804331F2B01DD0C2336E00A23FB1859
:10D060001800FFF72BFF0300FB60FB68002B01D0CB
:10D07000FB682AE03B681B785A1CD1B23A681170F1
:10D080001A007B689B1803221A703B681B785A1C95
:10D09000D1B23A6811701A007B689B1819221A7075
:10D0A0000A23FB181A883B681B7819007B685B18F9
:10D0B00019001000FFF70EFF03001A003B681B78F1
:10D0C0009B18DAB23B681A7000231800BD4604B002
:10D0D00080BDC04680B584B000AFB9607A600F23D0
:10D0E000FB18021C1A707B681B7803331F2B01DDB1
:10D0F0000C2323E07B681B785A1CD1B27A6811702C
:10D100001A00BB689B1802221A707B681B785A1C95
:10D11000D1B27A6811701A00BB689B180A221A7083
:10D120007B681B785A1CD1B27A6811701A00BB68F0
:10D130009B180F22BA1812781A7000231800BD46E7
:10D1400004B080BD80B58AB000AFF860080011005F
:10D150007B600B23FB18021C1A700A23FB180A1CA5
:10D160001A702323FB1800221A702223FB183A6B33
:10D1700012781A7000237B627BE0FB685A687B6A36
:10D180009B00D3181422BA181000190004231A00A7
:10D190000EF091FA1A23F9181423FB180022180034
:10D1A000FFF794FE0300FB61FB69002B01D0FB69D4
:10D1B0007BE01A23FB181B780A22BA1812789A42CD
:10D1C00054D12323FB181B78002B01D0002200E050
:10D1D00002221B23FB181A703B6B1B781A001A23C0
:10D1E000FB181B78D2181B23FB181B78D3181F2B96
:10D1F00001DD0C2359E02323FB181B780122534047
:10D20000DBB2002B16D03B6B1B780133DAB23B6BE1
:10D210001A703B6B1B785A1CD1B23A6B11701A0012
:10D220007B689B180B22BA1812781A702323FB18FC
:10D2300001221A703B6B1B781A007B689A181A231C
:10D24000F9181423FB181800FFF740FE0300FB61D8
:10D25000FB69002B01D0FB6927E03B6B1A781A238E
:10D26000FB181B78D318DAB23B6B1A707B6A013358
:10D270007B62FB681B881A1E7B6A9A4200DD7CE792
:10D280002323FB181B78002B0ED02223FB181B78BE
:10D290007A68D3183A6B11782222BA1812788A1A4F
:10D2A000D2B2013AD2B21A7000231800BD460AB0B9
:10D2B00080BDC04680B588B002AFF860080011009C
:10D2C0007B600B23FB18021C1A700A23FB180A1C34
:10D2D0001A707A680B23FB181978F8683B6A009378
:10D2E00013000222FFF72EFF03007B617B69002BF6
:10D2F00001D07B6912E07A680A23FB181978F86874
:10D300003B6A009313001022FFF71CFF03007B61B0
:10D310007B69002B01D07B6900E000231800BD462B
:10D3200006B080BD80B582B000AF78607B681B8896
:10D33000052B0AD97B681A88C8231B019A4206D993
:10D340007B681B88164A934201D0072323E07B6841
:10D350005B88052B0AD97B685A88C8231B019A422F
:10D3600006D97B685B880E4A934201D0072312E0FE
:10D370007B681B880A4A93420CD07B685B88084A0A
:10D38000934207D07B681A887B685B889A4201D9F0
:10D39000072300E000231800BD4602B080BDC04650
:10D3A000FFFF000080B586B000AFF860B9607A601A
:10D3B0007B681B7806331F2B01D90C2347E0FB68E1
:10D3C0001800FFF7AFFF03007B617B69002B01D0E2
:10D3D0007B693CE07B681B785A1CD1B27A6811707B
:10D3E0001A00BB689B1805221A707B681B785A1CB0
:10D3F000D1B27A6811701A00BB689B1812221A7099
:10D40000FB681A887B681B781900BB685B181900D9
:10D410001000FFF75FFD03001A007B681B789B1864
:10D42000DAB27B681A70FB685A887B681B7819002F
:10D43000BB685B1819001000FFF74CFD03001A00D1
:10D440007B681B789B18DAB27B681A70002318007F
:10D45000BD4606B080BDC04680B586B000AFF8605E
:10D46000B9607A60FB689B88DAB21723FB18023236
:10D470001A707B681B789A1C1723FB181B78D3182B
:10D480001F2B01DD0C234CE07B681B785A1CD1B2AA
:10D490007A6811701A00BB689B181722BA181278A4
:10D4A0000132D2B21A707B681B785A1CD1B27A68EA
:10D4B00011701A00BB689B18FF221A70FB681A884B
:10D4C0007B681B781900BB685B1819001000FFF718
:10D4D00001FD03001A007B681B789B18DAB27B6899
:10D4E0001A70FB689B88002B1AD0FB689B68002B86
:10D4F00001D1072315E07B681B781A00BB689818D8
:10D50000FB689968FB689B881A000EF0D4F87B686A
:10D510001A78FB689B88DBB2D318DAB27B681A7082
:10D5200000231800BD4606B080BDC04680B588B057
:10D5300000AFF860B9607A60FB689B6A002B01D18C
:10D54000072372E01F23FB1800221A7064E0FB68B7
:10D55000996A1F23FB181A7813005B009B189B0025
:10D56000CB18BB61BB699B88DAB21723FB18023268
:10D570001A707B681B785A1CD1B27A6811701A0035
:10D58000BB689B181722BA1812780132D2B21A70EF
:10D590007B681B785A1CD1B27A6811701A00BB687C
:10D5A0009B1816221A70BB691A887B681B781900B1
:10D5B000BB685B1819001000FFF78CFC03001A0011
:10D5C0007B681B789B18DAB27B681A70BB699B88F2
:10D5D000002B1AD0BB699B68002B01D1072324E0E4
:10D5E0007B681B781A00BB689818BB699968BB698F
:10D5F0009B881A000EF05FF87B681A78BB699B88DD
:10D60000DBB2D318DAB27B681A701F23FB181A78C2
:10D610001F23FB1801321A70FB682C229B5C1F220F
:10D62000BA1812789A4292D300231800BD4608B067
:10D6300080BDC04680B588B002AFF860B9607A603E
:10D6400000237B617B6800221A70FB681B78002B2B
:10D650000CD07A68B968FB681800FFF755FC030026
:10D660007B617B69002B01D07B69C3E0FB689B7801
:10D67000002B0CD07A68BB6811001800FFF7E2FCA1
:10D6800003007B617B69002B01D07B69B2E0FB6802
:10D69000DB78002B21D07B681B785A1CD1B27A68CA
:10D6A00011701A00BB689B1802221A707B681B78E5
:10D6B0005A1CD1B27A6811701A00BB689B180122FB
:10D6C0001A707B681B785A1CD1B27A6811701A00E4
:10D6D000BB689B18FA68D2781A70FB685B68002BED
:10D6E0000FD0FB685B681B787A68B9685BB218007A
:10D6F000FFF7F0FC03007B617B69002B01D07B69A5
:10D7000078E0FB681B89002B11D0FB6808331800F8
:10D71000BA687B680093130006220221FFF7CAFD56
:10D7200003007B617B69002B01D07B6962E0FB68B1
:10D730001B8A002B11D0FB6810331800BA687B6875
:10D740000093130007220321FFF7B4FD03007B6160
:10D750007B69002B01D07B694CE0FB681B8B002BA5
:10D7600011D0FB6818331800BA687B680093130067
:10D7700015221421FFF79EFD03007B617B69002BBE
:10D7800001D07B6936E0FB681B6A002B0DD0FB687B
:10D790001B6A7A68B9681800FFF704FE03007B6112
:10D7A0007B69002B01D07B6924E0FB685B6A002B5E
:10D7B0000DD0FB685B6A7A68B9681800FFF74CFE09
:10D7C00003007B617B69002B01D07B6912E0FB6861
:10D7D0002C229B5C002B0CD07A68B968FB6818007F
:10D7E000FFF7A4FE03007B617B69002B01D07B69FE
:10D7F00000E07B691800BD4606B080BD80B582B0F0
:10D8000000AF78607B68DB781A000423134001D1F5
:10D81000072300E000231800BD4602B080BDC046CB
:10D8200080B582B000AF78607B68DB78002B01D0D8
:10D83000072300E000231800BD4602B080BDC046AB
:10D8400080B596B000AF786039604B23FB1800229A
:10D850001A704A23FB1800221A707B68002B1DD017
:10D860007B681800FFF7CAFF0300FB64FB6C002B0A
:10D8700001D0FB6C42E04B23FA182823F9187B688F
:10D880001800FFF7D7FE0300FB64FB6C002B01D0F0
:10D89000FB6C33E02823FB187B6501E000237B65EC
:10D8A0003B68002B1DD03B681800FFF7B9FF030051
:10D8B000FB64FB6C002B01D0FB6C1FE04A23FA18C1
:10D8C0000823F9183B681800FFF7B4FE0300FB6457
:10D8D000FB6C002B01D0FB6C10E00823FB183B65B0
:10D8E00001E000233B654B23FB1819784A23FB1802
:10D8F0001B783A6D786DFFF7DDFA03001800BD461E
:10D9000016B080BD80B582B000AF78607B68FF2222
:10D910001A707B6800225A707B6800221A757B6837
:10D920000433102200211800FAF742FCC046BD461D
:10D9300002B080BD80B584B000AF78600023FB608A
:10D9400023E0FA6813005B009B18DB007A68C421AF
:10D9500049004A439B1808331A000F4BD31818008C
:10D96000FFF7D0FF0C4A7B68C42149004B43D31812
:10D97000043300221A70084B7A68C42149004A43D4
:10D980000021D150FB680133FB60FB680F2BD8D915
:10D99000C046BD4604B080BD6444002080B584B05C
:10D9A00000AF78600023FB600BE00B4BFA68C421EA
:10D9B00049004A43D2587B689A4206D0FB6801333B
:10D9C000FB60FB68002BF0D000E0C046FB6818004D
:10D9D000BD4604B080BDC0466444002080B586B01A
:10D9E00000AFF8607A600B23FB180A1C1A70002342
:10D9F0007B6127E017497A69F86813005B009B1880
:10DA0000DB00C422520042439B18CB1808331B781A
:10DA10000B22BA1812789A4211D17A6913005B006E
:10DA20009B18DB00FA68C42149004A439B1808335D
:10DA30001A00084BD2187B681A60002306E07B6945
:10DA400001337B617B690F2BD4D9034B1800BD4692
:10DA500006B080BD6444002005B10000F0B587B079
:10DA600000AFF860B9607A60654AFB68C42149007C
:10DA70004B43D31804331B783B6100237B61B2E036
:10DA80005F497A69F86813005B009B18DB00C422C9
:10DA9000520042439B18CB1808331B78FF2B00D150
:10DAA0009EE07A6913005B009B18DB00FA68C421D2
:10DAB00049004A439B1808331A00514BD3181C1DC8
:10DAC000BD684F497A69F86813005B009B18DB005A
:10DAD000C422520042439B18CB1809331B78DB0841
